{
  "address": "0xa07a16529A6712411036A2310365bFeB6C2dB072",
  "abi": [
    {
      "inputs": [
        {
          "internalType": "address",
          "name": "tokenA_",
          "type": "address"
        },
        {
          "internalType": "address",
          "name": "tokenB_",
          "type": "address"
        },
        {
          "internalType": "uint256",
          "name": "exchangeRate_",
          "type": "uint256"
        }
      ],
      "stateMutability": "nonpayable",
      "type": "constructor"
    },
    {
      "anonymous": false,
      "inputs": [
        {
          "indexed": true,
          "internalType": "address",
          "name": "_from",
          "type": "address"
        },
        {
          "indexed": false,
          "internalType": "address",
          "name": "_tokenA",
          "type": "address"
        },
        {
          "indexed": false,
          "internalType": "address",
          "name": "_tokenB",
          "type": "address"
        },
        {
          "indexed": false,
          "internalType": "uint256",
          "name": "_amount",
          "type": "uint256"
        }
      ],
      "name": "Swap",
      "type": "event"
    },
    {
      "inputs": [],
      "name": "exchangeRate",
      "outputs": [
        {
          "internalType": "uint256",
          "name": "",
          "type": "uint256"
        }
      ],
      "stateMutability": "view",
      "type": "function"
    },
    {
      "inputs": [
        {
          "internalType": "address",
          "name": "fromToken",
          "type": "address"
        },
        {
          "internalType": "address",
          "name": "toToken",
          "type": "address"
        },
        {
          "internalType": "uint256",
          "name": "amount",
          "type": "uint256"
        }
      ],
      "name": "swap",
      "outputs": [
        {
          "internalType": "uint256",
          "name": "",
          "type": "uint256"
        }
      ],
      "stateMutability": "nonpayable",
      "type": "function"
    },
    {
      "inputs": [],
      "name": "tokenA",
      "outputs": [
        {
          "internalType": "address",
          "name": "",
          "type": "address"
        }
      ],
      "stateMutability": "view",
      "type": "function"
    },
    {
      "inputs": [],
      "name": "tokenB",
      "outputs": [
        {
          "internalType": "address",
          "name": "",
          "type": "address"
        }
      ],
      "stateMutability": "view",
      "type": "function"
    }
  ],
  "transactionHash": "0xa9efb473234a398c7538f0c7349c4bc2b1403eae12364a9fcc57d3379b96d120",
  "args": [
    "0xf1140386b245bad8aD4D586e93fe462ffA70Ba84",
    "0xe8001631598233B7eC1178650fDcEdEe5C2CC8d9",
    5
  ],
  "numDeployments": 1,
  "solcInputHash": "d194402bfe2950cd1b16c0990fa856c5",
  "bytecode": "0x60806040523480156200001157600080fd5b50604051620014903803806200149083398181016040528101906200003791906200016d565b826000806101000a81548173ffffffffffffffffffffffffffffffffffffffff021916908373ffffffffffffffffffffffffffffffffffffffff16021790555081600160006101000a81548173ffffffffffffffffffffffffffffffffffffffff021916908373ffffffffffffffffffffffffffffffffffffffff16021790555080600281905550505050620001c9565b600080fd5b600073ffffffffffffffffffffffffffffffffffffffff82169050919050565b6000620000fa82620000cd565b9050919050565b6200010c81620000ed565b81146200011857600080fd5b50565b6000815190506200012c8162000101565b92915050565b6000819050919050565b620001478162000132565b81146200015357600080fd5b50565b60008151905062000167816200013c565b92915050565b600080600060608486031215620001895762000188620000c8565b5b600062000199868287016200011b565b9350506020620001ac868287016200011b565b9250506040620001bf8682870162000156565b9150509250925092565b6112b780620001d96000396000f3fe608060405234801561001057600080fd5b506004361061004c5760003560e01c80630fc63d10146100515780633ba0b9a91461006f5780635f64b55b1461008d578063df791e50146100ab575b600080fd5b6100596100db565b6040516100669190610b96565b60405180910390f35b6100776100ff565b6040516100849190610bca565b60405180910390f35b610095610105565b6040516100a29190610b96565b60405180910390f35b6100c560048036038101906100c09190610c42565b61012b565b6040516100d29190610bca565b60405180910390f35b60008054906101000a900473ffffffffffffffffffffffffffffffffffffffff1681565b60025481565b600160009054906101000a900473ffffffffffffffffffffffffffffffffffffffff1681565b60008060009054906101000a900473ffffffffffffffffffffffffffffffffffffffff1673ffffffffffffffffffffffffffffffffffffffff168473ffffffffffffffffffffffffffffffffffffffff1614806101d55750600160009054906101000a900473ffffffffffffffffffffffffffffffffffffffff1673ffffffffffffffffffffffffffffffffffffffff168473ffffffffffffffffffffffffffffffffffffffff16145b610214576040517f08c379a000000000000000000000000000000000000000000000000000000000815260040161020b90610d18565b60405180910390fd5b600160009054906101000a900473ffffffffffffffffffffffffffffffffffffffff1673ffffffffffffffffffffffffffffffffffffffff168373ffffffffffffffffffffffffffffffffffffffff1614806102bb575060008054906101000a900473ffffffffffffffffffffffffffffffffffffffff1673ffffffffffffffffffffffffffffffffffffffff168373ffffffffffffffffffffffffffffffffffffffff16145b6102fa576040517f08c379a00000000000000000000000000000000000000000000000000000000081526004016102f190610daa565b60405180910390fd5b8273ffffffffffffffffffffffffffffffffffffffff168473ffffffffffffffffffffffffffffffffffffffff1603610368576040517f08c379a000000000000000000000000000000000000000000000000000000000815260040161035f90610e3c565b60405180910390fd5b60008054906101000a900473ffffffffffffffffffffffffffffffffffffffff1673ffffffffffffffffffffffffffffffffffffffff168473ffffffffffffffffffffffffffffffffffffffff16036103ca576103c533836103e0565b6103d5565b6103d433836105f5565b5b600190509392505050565b61042d82308360008054906101000a900473ffffffffffffffffffffffffffffffffffffffff1673ffffffffffffffffffffffffffffffffffffffff1661080c909392919063ffffffff16565b60008054906101000a900473ffffffffffffffffffffffffffffffffffffffff1673ffffffffffffffffffffffffffffffffffffffff16639dc29fac30836040518363ffffffff1660e01b8152600401610488929190610e5c565b600060405180830381600087803b1580156104a257600080fd5b505af11580156104b6573d6000803e3d6000fd5b50505050600160009054906101000a900473ffffffffffffffffffffffffffffffffffffffff1673ffffffffffffffffffffffffffffffffffffffff166340c10f193361050e6002548561089590919063ffffffff16565b6040518363ffffffff1660e01b815260040161052b929190610e5c565b600060405180830381600087803b15801561054557600080fd5b505af1158015610559573d6000803e3d6000fd5b505050503373ffffffffffffffffffffffffffffffffffffffff167fffebebfb273923089a3ed6bac0fd4686ac740307859becadeb82f998e30db61460008054906101000a900473ffffffffffffffffffffffffffffffffffffffff16600160009054906101000a900473ffffffffffffffffffffffffffffffffffffffff16846040516105e993929190610e85565b60405180910390a25050565b610644823083600160009054906101000a900473ffffffffffffffffffffffffffffffffffffffff1673ffffffffffffffffffffffffffffffffffffffff1661080c909392919063ffffffff16565b600160009054906101000a900473ffffffffffffffffffffffffffffffffffffffff1673ffffffffffffffffffffffffffffffffffffffff16639dc29fac30836040518363ffffffff1660e01b81526004016106a1929190610e5c565b600060405180830381600087803b1580156106bb57600080fd5b505af11580156106cf573d6000803e3d6000fd5b5050505060008054906101000a900473ffffffffffffffffffffffffffffffffffffffff1673ffffffffffffffffffffffffffffffffffffffff166340c10f1933610725600254856108ab90919063ffffffff16565b6040518363ffffffff1660e01b8152600401610742929190610e5c565b600060405180830381600087803b15801561075c57600080fd5b505af1158015610770573d6000803e3d6000fd5b505050503373ffffffffffffffffffffffffffffffffffffffff167fffebebfb273923089a3ed6bac0fd4686ac740307859becadeb82f998e30db61460008054906101000a900473ffffffffffffffffffffffffffffffffffffffff16600160009054906101000a900473ffffffffffffffffffffffffffffffffffffffff168460405161080093929190610e85565b60405180910390a25050565b61088f846323b872dd60e01b85858560405160240161082d93929190610e85565b604051602081830303815290604052907bffffffffffffffffffffffffffffffffffffffffffffffffffffffff19166020820180517bffffffffffffffffffffffffffffffffffffffffffffffffffffffff83818316178352505050506108c1565b50505050565b600081836108a39190610eeb565b905092915050565b600081836108b99190610f5c565b905092915050565b6000610923826040518060400160405280602081526020017f5361666545524332303a206c6f772d6c6576656c2063616c6c206661696c65648152508573ffffffffffffffffffffffffffffffffffffffff166109889092919063ffffffff16565b905060008151111561098357808060200190518101906109439190610fc5565b610982576040517f08c379a000000000000000000000000000000000000000000000000000000000815260040161097990611064565b60405180910390fd5b5b505050565b606061099784846000856109a0565b90509392505050565b6060824710156109e5576040517f08c379a00000000000000000000000000000000000000000000000000000000081526004016109dc906110f6565b60405180910390fd5b6000808673ffffffffffffffffffffffffffffffffffffffff168587604051610a0e9190611187565b60006040518083038185875af1925050503d8060008114610a4b576040519150601f19603f3d011682016040523d82523d6000602084013e610a50565b606091505b5091509150610a6187838387610a6d565b92505050949350505050565b60608315610acf576000835103610ac757610a8785610ae2565b610ac6576040517f08c379a0000000000000000000000000000000000000000000000000000000008152600401610abd906111ea565b60405180910390fd5b5b829050610ada565b610ad98383610b05565b5b949350505050565b6000808273ffffffffffffffffffffffffffffffffffffffff163b119050919050565b600082511115610b185781518083602001fd5b806040517f08c379a0000000000000000000000000000000000000000000000000000000008152600401610b4c919061125f565b60405180910390fd5b600073ffffffffffffffffffffffffffffffffffffffff82169050919050565b6000610b8082610b55565b9050919050565b610b9081610b75565b82525050565b6000602082019050610bab6000830184610b87565b92915050565b6000819050919050565b610bc481610bb1565b82525050565b6000602082019050610bdf6000830184610bbb565b92915050565b600080fd5b610bf381610b75565b8114610bfe57600080fd5b50565b600081359050610c1081610bea565b92915050565b610c1f81610bb1565b8114610c2a57600080fd5b50565b600081359050610c3c81610c16565b92915050565b600080600060608486031215610c5b57610c5a610be5565b5b6000610c6986828701610c01565b9350506020610c7a86828701610c01565b9250506040610c8b86828701610c2d565b9150509250925092565b600082825260208201905092915050565b7f45786368616e67653a206d757374207573652076616c69642066726f6d20746f60008201527f6b656e0000000000000000000000000000000000000000000000000000000000602082015250565b6000610d02602383610c95565b9150610d0d82610ca6565b604082019050919050565b60006020820190508181036000830152610d3181610cf5565b9050919050565b7f45786368616e67653a206d757374207573652076616c696420746f20746f6b6560008201527f6e00000000000000000000000000000000000000000000000000000000000000602082015250565b6000610d94602183610c95565b9150610d9f82610d38565b604082019050919050565b60006020820190508181036000830152610dc381610d87565b9050919050565b7f45786368616e67653a2063616e6e6f74207377617020746f6b656e20666f722060008201527f697473656c660000000000000000000000000000000000000000000000000000602082015250565b6000610e26602683610c95565b9150610e3182610dca565b604082019050919050565b60006020820190508181036000830152610e5581610e19565b9050919050565b6000604082019050610e716000830185610b87565b610e7e6020830184610bbb565b9392505050565b6000606082019050610e9a6000830186610b87565b610ea76020830185610b87565b610eb46040830184610bbb565b949350505050565b7f4e487b7100000000000000000000000000000000000000000000000000000000600052601160045260246000fd5b6000610ef682610bb1565b9150610f0183610bb1565b9250828202610f0f81610bb1565b91508282048414831517610f2657610f25610ebc565b5b5092915050565b7f4e487b7100000000000000000000000000000000000000000000000000000000600052601260045260246000fd5b6000610f6782610bb1565b9150610f7283610bb1565b925082610f8257610f81610f2d565b5b828204905092915050565b60008115159050919050565b610fa281610f8d565b8114610fad57600080fd5b50565b600081519050610fbf81610f99565b92915050565b600060208284031215610fdb57610fda610be5565b5b6000610fe984828501610fb0565b91505092915050565b7f5361666545524332303a204552433230206f7065726174696f6e20646964206e60008201527f6f74207375636365656400000000000000000000000000000000000000000000602082015250565b600061104e602a83610c95565b915061105982610ff2565b604082019050919050565b6000602082019050818103600083015261107d81611041565b9050919050565b7f416464726573733a20696e73756666696369656e742062616c616e636520666f60008201527f722063616c6c0000000000000000000000000000000000000000000000000000602082015250565b60006110e0602683610c95565b91506110eb82611084565b604082019050919050565b6000602082019050818103600083015261110f816110d3565b9050919050565b600081519050919050565b600081905092915050565b60005b8381101561114a57808201518184015260208101905061112f565b60008484015250505050565b600061116182611116565b61116b8185611121565b935061117b81856020860161112c565b80840191505092915050565b60006111938284611156565b915081905092915050565b7f416464726573733a2063616c6c20746f206e6f6e2d636f6e7472616374000000600082015250565b60006111d4601d83610c95565b91506111df8261119e565b602082019050919050565b60006020820190508181036000830152611203816111c7565b9050919050565b600081519050919050565b6000601f19601f8301169050919050565b60006112318261120a565b61123b8185610c95565b935061124b81856020860161112c565b61125481611215565b840191505092915050565b600060208201905081810360008301526112798184611226565b90509291505056fea26469706673582212209d2bf6cee577f0b664645e9fad658bfebd2f4c9738e183043613c40ac6e50aa064736f6c63430008110033",
  "devdoc": {
    "kind": "dev",
    "methods": {},
    "version": 1
  },
  "userdoc": {
    "kind": "user",
    "methods": {},
    "version": 1
  },
  "storageLayout": {
    "storage": [
      {
        "astId": 3164,
        "contract": "contracts/Exchange.sol:Exchange",
        "label": "tokenA",
        "offset": 0,
        "slot": "0",
        "type": "t_address"
      },
      {
        "astId": 3166,
        "contract": "contracts/Exchange.sol:Exchange",
        "label": "tokenB",
        "offset": 0,
        "slot": "1",
        "type": "t_address"
      },
      {
        "astId": 3168,
        "contract": "contracts/Exchange.sol:Exchange",
        "label": "exchangeRate",
        "offset": 0,
        "slot": "2",
        "type": "t_uint256"
      }
    ],
    "types": {
      "t_address": {
        "encoding": "inplace",
        "label": "address",
        "numberOfBytes": "20"
      },
      "t_uint256": {
        "encoding": "inplace",
        "label": "uint256",
        "numberOfBytes": "32"
      }
    }
  }
}